{
  "contractName": "PaymentSplitter",
  "abi": [
    {
      "constant": false,
      "inputs": [
        {
          "name": "account",
          "type": "address"
        }
      ],
      "name": "release",
      "outputs": [],
      "payable": false,
      "stateMutability": "nonpayable",
      "type": "function"
    },
    {
      "constant": true,
      "inputs": [],
      "name": "totalShares",
      "outputs": [
        {
          "name": "",
          "type": "uint256"
        }
      ],
      "payable": false,
      "stateMutability": "view",
      "type": "function"
    },
    {
      "constant": true,
      "inputs": [
        {
          "name": "index",
          "type": "uint256"
        }
      ],
      "name": "payee",
      "outputs": [
        {
          "name": "",
          "type": "address"
        }
      ],
      "payable": false,
      "stateMutability": "view",
      "type": "function"
    },
    {
      "constant": true,
      "inputs": [
        {
          "name": "account",
          "type": "address"
        }
      ],
      "name": "released",
      "outputs": [
        {
          "name": "",
          "type": "uint256"
        }
      ],
      "payable": false,
      "stateMutability": "view",
      "type": "function"
    },
    {
      "constant": true,
      "inputs": [],
      "name": "totalReleased",
      "outputs": [
        {
          "name": "",
          "type": "uint256"
        }
      ],
      "payable": false,
      "stateMutability": "view",
      "type": "function"
    },
    {
      "inputs": [
        {
          "name": "payees",
          "type": "address[]"
        },
        {
          "name": "shares",
          "type": "uint256[]"
        }
      ],
      "payable": true,
      "stateMutability": "payable",
      "type": "constructor"
    },
    {
      "payable": true,
      "stateMutability": "payable",
      "type": "fallback"
    },
    {
      "anonymous": false,
      "inputs": [
        {
          "indexed": false,
          "name": "account",
          "type": "address"
        },
        {
          "indexed": false,
          "name": "shares",
          "type": "uint256"
        }
      ],
      "name": "PayeeAdded",
      "type": "event"
    },
    {
      "anonymous": false,
      "inputs": [
        {
          "indexed": false,
          "name": "to",
          "type": "address"
        },
        {
          "indexed": false,
          "name": "amount",
          "type": "uint256"
        }
      ],
      "name": "PaymentReleased",
      "type": "event"
    },
    {
      "anonymous": false,
      "inputs": [
        {
          "indexed": false,
          "name": "from",
          "type": "address"
        },
        {
          "indexed": false,
          "name": "amount",
          "type": "uint256"
        }
      ],
      "name": "PaymentReceived",
      "type": "event"
    }
  ],
  "bytecode": "0x6080604052604051610a19380380610a198339810180604052604081101561002657600080fd5b81019080805164010000000081111561003e57600080fd5b8281019050602081018481111561005457600080fd5b815185602082028301116401000000008211171561007157600080fd5b5050929190602001805164010000000081111561008d57600080fd5b828101905060208101848111156100a357600080fd5b81518560208202830111640100000000821117156100c057600080fd5b5050929190505050805182511415156100d857600080fd5b600082511115156100e857600080fd5b60008090505b825181101561014b5761013e838281518110151561010857fe5b90602001906020020151838381518110151561012057fe5b90602001906020020151610153640100000000026401000000009004565b80806001019150506100ee565b50505061034e565b600073ffffffffffffffffffffffffffffffffffffffff168273ffffffffffffffffffffffffffffffffffffffff161415151561018f57600080fd5b60008111151561019e57600080fd5b6000600260008473ffffffffffffffffffffffffffffffffffffffff1673ffffffffffffffffffffffffffffffffffffffff168152602001908152602001600020541415156101ec57600080fd5b60048290806001815401808255809150509060018203906000526020600020016000909192909190916101000a81548173ffffffffffffffffffffffffffffffffffffffff021916908373ffffffffffffffffffffffffffffffffffffffff1602179055505080600260008473ffffffffffffffffffffffffffffffffffffffff1673ffffffffffffffffffffffffffffffffffffffff168152602001908152602001600020819055506102b88160005461032d640100000000026105e5179091906401000000009004565b6000819055507f40c340f65e17194d14ddddb073d3c9f888e3cb52b5aae0c6c7706b4fbc905fac8282604051808373ffffffffffffffffffffffffffffffffffffffff1673ffffffffffffffffffffffffffffffffffffffff1681526020018281526020019250505060405180910390a15050565b600080828401905083811015151561034457600080fd5b8091505092915050565b6106bc8061035d6000396000f3fe608060405260043610610067576000357c01000000000000000000000000000000000000000000000000000000009004806319165587146100d45780633a98ef391461013f5780638b83209b146101845780639852595c14610219578063e33b7de314610298575b7f6ef95f06320e7a25a04a175ca677b7052bdd97131872c2192525a629f51be7703334604051808373ffffffffffffffffffffffffffffffffffffffff1673ffffffffffffffffffffffffffffffffffffffff1681526020018281526020019250505060405180910390a1005b3480156100e057600080fd5b50d380156100ed57600080fd5b50d280156100fa57600080fd5b5061013d6004803603602081101561011157600080fd5b81019080803573ffffffffffffffffffffffffffffffffffffffff1690602001909291905050506102dd565b005b34801561014b57600080fd5b50d3801561015857600080fd5b50d2801561016557600080fd5b5061016e610546565b6040518082815260200191505060405180910390f35b34801561019057600080fd5b50d3801561019d57600080fd5b50d280156101aa57600080fd5b506101d7600480360360208110156101c157600080fd5b810190808035906020019092919050505061054f565b604051808273ffffffffffffffffffffffffffffffffffffffff1673ffffffffffffffffffffffffffffffffffffffff16815260200191505060405180910390f35b34801561022557600080fd5b50d3801561023257600080fd5b50d2801561023f57600080fd5b506102826004803603602081101561025657600080fd5b81019080803573ffffffffffffffffffffffffffffffffffffffff169060200190929190505050610592565b6040518082815260200191505060405180910390f35b3480156102a457600080fd5b50d380156102b157600080fd5b50d280156102be57600080fd5b506102c76105db565b6040518082815260200191505060405180910390f35b6000600260008373ffffffffffffffffffffffffffffffffffffffff1673ffffffffffffffffffffffffffffffffffffffff1681526020019081526020016000205411151561032b57600080fd5b60006103596001543073ffffffffffffffffffffffffffffffffffffffff16316105e590919063ffffffff16565b90506000610414600360008573ffffffffffffffffffffffffffffffffffffffff1673ffffffffffffffffffffffffffffffffffffffff168152602001908152602001600020546104066000546103f8600260008973ffffffffffffffffffffffffffffffffffffffff1673ffffffffffffffffffffffffffffffffffffffff168152602001908152602001600020548761060690919063ffffffff16565b61064490919063ffffffff16565b61066e90919063ffffffff16565b90506000811415151561042657600080fd5b61047881600360008673ffffffffffffffffffffffffffffffffffffffff1673ffffffffffffffffffffffffffffffffffffffff168152602001908152602001600020546105e590919063ffffffff16565b600360008573ffffffffffffffffffffffffffffffffffffffff1673ffffffffffffffffffffffffffffffffffffffff168152602001908152602001600020819055506104d0816001546105e590919063ffffffff16565b6001819055507fdf20fd1e76bc69d672e4814fafb2c449bba3a5369d8359adf9e05e6fde87b0568382604051808373ffffffffffffffffffffffffffffffffffffffff1673ffffffffffffffffffffffffffffffffffffffff1681526020018281526020019250505060405180910390a1505050565b60008054905090565b600060048281548110151561056057fe5b9060005260206000200160009054906101000a900473ffffffffffffffffffffffffffffffffffffffff169050919050565b6000600360008373ffffffffffffffffffffffffffffffffffffffff1673ffffffffffffffffffffffffffffffffffffffff168152602001908152602001600020549050919050565b6000600154905090565b60008082840190508381101515156105fc57600080fd5b8091505092915050565b600080831415610619576000905061063e565b6000828402905082848281151561062c57fe5b0414151561063957600080fd5b809150505b92915050565b6000808211151561065457600080fd5b6000828481151561066157fe5b0490508091505092915050565b600082821115151561067f57600080fd5b60008284039050809150509291505056fea165627a7a723058208b43ab7390fd8cc3abd2d329ae30e70ac1394b2dd3deab2224b8f5533a08c40b0029",
  "source": "// SPDX-License-Identifier: MIT\n//pragma solidity ^0.4.24;\npragma solidity 0.5.4;\n\nimport \"./SafeMath.sol\";\n\n/**\n * @title PaymentSplitter\n * @dev This contract can be used when payments need to be received by a group\n * of people and split proportionately to some number of shares they own.\n */\n  contract PaymentSplitter {\n  using SafeMath for uint256;\n\n  \n\n  event PayeeAdded(address account, uint256 shares);\n  event PaymentReleased(address to, uint256 amount);\n  event PaymentReceived(address from, uint256 amount);\n\n  uint256 private _totalShares;\n  uint256 private _totalReleased;\n\n  mapping(address => uint256) private _shares;\n  mapping(address => uint256) private _released;\n  address[] private _payees;\n\n\n  /**\n   * @dev Constructor\n   */\n  \n\n     constructor(address[] memory payees,uint256[] memory shares) payable public{\n    require(payees.length == shares.length);\n    require(payees.length > 0);\n\n    for (uint256 i = 0; i < payees.length; i++) {\n      _addPayee(payees[i], shares[i]);\n    }\n  }\n\n  /**\n   * @dev payable fallback\n   */\n  function () external payable {\n    emit PaymentReceived(msg.sender, msg.value);\n  }\n\n  /**\n   * @return the total shares of the contract.\n   */\n  function totalShares() public view returns(uint256) {\n    return _totalShares;\n  }\n\n  /**\n   * @return the total amount already released.\n   */\n  function totalReleased() public view returns(uint256) {\n    return _totalReleased;\n  }\n\n  /**\n   * @return the shares of an account.\n   */\n  //function shares(address account) public view returns(uint256) {\n   // return _shares[account];\n // }\n\n  /**\n   * @return the amount already released to an account.\n   */\n  function released(address account) public view returns(uint256) {\n    return _released[account];\n  }\n\n  /**\n   * @return the address of a payee.\n   */\n  function payee(uint256 index) public view returns(address) {\n    return _payees[index];\n  }\n\n  /**\n   * @dev Release one of the payee's proportional payment.\n   * @param account Whose payments will be released.\n   */\n  function release(address account) public {\n    require(_shares[account] > 0);\n\n    uint256 totalReceived = address(this).balance.add(_totalReleased);\n    uint256 payment = totalReceived.mul(\n      _shares[account]).div(\n        _totalShares).sub(\n          _released[account]\n    );\n\n    require(payment != 0);\n\n    _released[account] = _released[account].add(payment);\n    _totalReleased = _totalReleased.add(payment);\n\n   //account.transfer(payment);\n    emit PaymentReleased(account, payment);\n  }\n\n  /**\n   * @dev Add a new payee to the contract.\n   * @param account The address of the payee to add.\n   * @param shares_ The number of shares owned by the payee.\n   */\n  function _addPayee(address account, uint256 shares_) private {\n    require(account != address(0));\n    require(shares_ > 0);\n    require(_shares[account] == 0);\n\n    _payees.push(account);\n    _shares[account] = shares_;\n    _totalShares = _totalShares.add(shares_);\n    emit PayeeAdded(account, shares_);\n  }\n}",
  "sourcePath": "/data/IMP/abedToken/wallet/contracts/PaymentSplitter.sol",
  "compiler": {
    "name": "solc",
    "version": "0.5.4+commit.d15a3125.mod.Emscripten.clang"
  },
  "schemaVersion": "2.0.1",
  "updatedAt": "2023-11-04T05:53:36.865Z"
}